:020000040800F2
:1000000000280020C9010008190200081902000890
:100010001902000819020008190200080000000077
:1000200000000000000000000000000019020008AD
:100030001902000800000000190200081902000857
:100040001902000819020008190200081902000824
:100050001902000819020008190200081902000814
:100060001902000819020008190200081902000804
:1000700019020008190200081902000819020008F4
:1000800019020008190200081902000819020008E4
:1000900019020008190200081902000819020008D4
:1000A00019020008190200081902000819020008C4
:1000B00019020008190200081902000819020008B4
:1000C00019020008190200081902000819020008A4
:1000D0001902000819020008190200081902000894
:1000E00019020008190200080000000019020008A7
:1000F0001902000819020008190200081902000874
:100100001902000819020008190200081902000863
:100110001902000819020008190200081902000853
:100120001902000819020008190200081902000843
:1001300010B5054C237833B9044B13B10448AFF321
:1001400000800123237010BD00000020000000008B
:100150006402000808B5034B1BB103490348AFF321
:10016000008008BD000000000400002064020008B8
:1001700080B483B000AF114B1B68104A43F00403F6
:1001800013600F4B1B6823F0704323F43C130C4A9D
:1001900043F4001313600B4B1B680A4A83F40053AB
:1001A000136000237B6002E07B6801337B607B6827
:1001B0004CF24F329342F7D9EDE700BF18100240DE
:1001C000040801400C0801400D488546AFF300804B
:1001D0000C480D490D4A002302E0D458C4500433A2
:1001E000C4188C42F9D30A4A0A4C002301E0136078
:1001F0000432A242FBD300F011F8FFF7B9FFFEE78B
:1002000000280020000000200000002084020008D8
:10021000000000201C000020FEE7000070B5002553
:100220000C4E0D4CA41BA410A54209D100F01AF8E5
:1002300000250A4E0A4CA41BA410A54205D170BD8E
:1002400056F8253098470135EEE756F8253098479F
:100250000135F2E77C0200087C0200087C020008FD
:1002600080020008F8B500BFF8BC08BC9E46704785
:0C027000F8B500BFF8BC08BC9E46704703
:04027C005501000820
:040280003101000840
:04000005080001C925
:00000001FF
